:020000040800F2
:1000000038BD002065010008E11A00080118000849
:10001000E5190008510800089D28000800000000AC
:10002000000000000000000000000000631F000846
:10003000F708000800000000D91C00088D21000806
:100040007F0100087F0100087F0100087F01000890
:100050007F0100087F0100087F0100087F01000880
:100060007F0100087F0100085B1400087F01000881
:100070007F0100087F0100087F0100087F01000860
:100080007F0100087F0100087F0100087F01000850
:100090007F0100087F0100087F0100087F01000840
:1000A0007F0100087F0100087F0100087F01000830
:1000B0007F010008412200087F0100087F0100083D
:1000C0007F0100087F0100087F0100087F01000810
:1000D0007F01000881260008C126000801270008CA
:1000E0007F0100087F0100087F0100080000000078
:1000F0000000000000000000000000000000000000
:1001000000000000000000007F0100087F010008DF
:10011000FD2500083D2600087F0100087F0100083A
:100120007F0100087F0100087F0100087F010008AF
:100130007F0100083D0C00087F0100087F010008D6
:100140007F0100087F0100087F0100087F0100088F
:10015000DFF80CD000F096FA00480047E95D00088F
:1001600038BD00200648804706480047FEE7FEE706
:10017000FEE7FEE7FEE7FEE7FEE7FEE7FEE7FEE757
:1001800091210008510100082DE9F05F054600208B
:1001900092469B4688460646814640241BE02846F8
:1001A00041464746224600F0B6F953465A46C01A21
:1001B000914110D311461846224600F09DF92D1AA0
:1001C00067EB01084F4622460120002100F094F918
:1001D00017EB00094E41201EA4F10104DFDC484664
:1001E00031462A464346BDE8F09F2DE9F041002400
:1001F000061B254671F1000605DA01240027D0EB25
:10020000070067EB0101161E73F1000605DA0027EF
:10021000D2EB0702012567EB0303FFF7B5FF864624
:100220000E4617469C46AC4204D00025D0EB050E86
:1002300065EB010624B10020D2EB000760EB030C54
:10024000704631463A466346BDE8F0810649074AA2
:100250000868504343F23902104408604008704770
:1002600001490860704700004C0100206D4EC641F6
:1002700040EA01039B0703D009E008C9121F08C028
:10028000042AFAD203E011F8013B00F8013B521EA8
:10029000F9D27047D2B201E000F8012B491EFBD21F
:1002A00070470022F6E710B513460A460446194681
:1002B000FFF7F0FF204610BD30B505462A460B4635
:1002C00012F8010B13F8014B08B1A042F8D01CB191
:1002D000002802D06D1CF1E7284630BD421C10F802
:1002E000011B0029FBD1801A704730B5044600205D
:1002F000034600E05B1C934203D2E05CCD5C401BF4
:10030000F8D030BD70B5064602F0DEFA0468054646
:100310000A220021304600F020F92C6070BD2DE942
:10032000FE4F804681EA0300C00F0C46009021F08A
:10033000004123F00045B8EB0200A94105D2404638
:10034000214690461C460B46024623F000401043CF
:1003500047D0270DC7F30A00C3F30A510290401A91
:10036000019040286BDAC3F3130040F4801B00981F
:10037000924620B10023D2EB030A63EB0B0B0198EA
:100380005946C0F14002504600F0B6F806460D4608
:1003900050465946019A00F0CEF810EB0800614132
:1003A000002487EA115284EAE7731A4340D0009A86
:1003B00062B3019A012A4FEA075215DC001B61EB78
:1003C00002014FF0004202EA0752CDE90042001C50
:1003D00041F5801132462B4600F006F903B0BDE826
:1003E000F08F40462146F9E7001B61EB0201001C3B
:1003F00041F5801300185B412018A2F5001747EB68
:10040000030140EAD570B6196D4111E06D084FEA5D
:10041000360645EAC0754FEA0752001B61EB020140
:10042000001C41F5801149084FEA30000019514184
:1004300032462B4603B0BDE8F04F00F0C6B8009836
:10044000012240000023D0EB020263EBE07300982E
:1004500021464FEAE074B8EB000061EB0401E9E7E4
:1004600083F000435BE781F0004158E70EB5C10F10
:1004700080EAE0700844CA07002140F233438DE867
:100480000E000A460B4600F0AFF803B000BD70B591
:10049000C1F30A5201F000450024C1F3130140F2F8
:1004A000FF3341F480119A4201DA002070BD40F21E
:1004B00033439A42A2F2334203DC524200F02BF85B
:1004C00000E090402C43F1D0404270BD30B50B4667
:1004D000014600202022012409E021FA02F59D4274
:1004E00005D303FA02F5491B04FA02F52844151E48
:1004F000A2F10102F1DC30BD202A04DB203A00FA2F
:1005000002F1002070479140C2F1200320FA03F36A
:10051000194390407047202A04DB203A21FA02F068
:100520000021704721FA02F3D040C2F1200291402D
:10053000084319467047202A06DBCB17203A41FAB8
:1005400002F043EAE07306E041FA02F3D040C2F160
:10055000200291400843194670472DE9F047914623
:100560000F4680460446002614F8015B2DB100F0CA
:100570009BF80068405DC007F6D12B2D02D02D2DD1
:1005800018D0641E4A463946204600F091F827B13B
:100590003968A14201D1C7F8008071054FF002040B
:1005A0000BD54042002803DD02F08EF90460A0075D
:1005B000BDE8F08746F48066E4E70028F8DA02F048
:1005C00083F904606FF00040F2E710B5141E73F178
:1005D000000408DA401C41F1000192185B411A4303
:1005E00001D120F0010010BD2DE9F04D92469B464F
:1005F00011B1B1FA81F202E0B0FA80F220329046F5
:10060000FFF77AFF04460F4640EA0A0041EA0B0171
:1006100053465A46084313D0114653EA010019D0F5
:10062000C8F140025046FFF776FF05460E46504699
:1006300059464246FFF760FF084305D0012004E019
:1006400020463946BDE8F08D0020054346EAE076B5
:100650002C4337430A986305E40AA0EB0800002204
:10066000FD0A44EA47540A3002D500200146E9E772
:10067000010510196941DDE9084500196941BDE826
:10068000F04DA2E7064C074D06E0E06840F001039C
:1006900094E8070098471034AC42F6D3FFF75CFDAE
:1006A0005884000878840008004870475484000883
:1006B0002DE9F05F82460078002715468B460AF147
:1006C0000104B946302801D09DB113E014F8010BA4
:1006D0000127782803D0582801D045B10AE00DB190
:1006E000102D07D10027102514F8010B02E0082572
:1006F00000E00A250026B0460EE005FB080005FBD9
:1007000006F1012701EB10461FFA80F8B6F5803F8D
:1007100000D3B94614F8010B294600F018F8002858
:10072000EBDABBF1000F05D00FB1641E00E05446B8
:10073000CBF80040B9F1000F06D002F0C5F8022155
:100740000160C81EBDE8F09F48EA0640FAE73A2873
:1007500000D2303820F02002412A01D3A2F1370024
:10076000884201D34FF0FF30704770B58C1810F8F5
:10077000015B15F0070301D110F8013B2A1106D1E6
:1007800010F8012B03E010F8016B01F8016B5B1E00
:10079000F9D12B0705D40023521E0DD401F8013BDB
:1007A000FAE710F8013BCB1A921C03E013F8015B47
:1007B00001F8015B521EF9D5A142D8D3002070BDCB
:1007C0007CB51E4C1E4894F86210808B052901D11F
:1007D000012801D003282FD11A4A02F1080101F1A2
:1007E000080006F0BCFE174D10356868011E00DADF
:1007F0004042154A90420BDD286848B90846FFF789
:1008000035FE0022114BFFF72BFEFFF740FE68601C
:10081000002000900B494FF42070103101906A467F
:10082000084606F09CFE07480838D0E90610C4E9DF
:100830000610024807F04CFA7CBD0000E0A600203C
:10084000840D00200800002000E9A43565CDCD41CD
:10085000FEE7000030B585B00121022001F056FA14
:100860000121112001F05EFA8020ADF8100018205F
:100870008DF8130003208DF8120004A91A4800F027
:1008800049FF0121194800F093FF0420ADF8000052
:1008900000200124ADF80440154DADF80200ADF87C
:1008A0000600ADF808006946284601F05DFD01210B
:1008B000284601F0F2FC01220421284601F0AAFD9D
:1008C0000421284601F0E6FC1D208DF80C008DF86F
:1008D0000D4007208DF80E008DF80F4003A801F0A1
:1008E00001F905B030BD000000100140000C1A00F5
:1008F000000400407047704708B501214FF4E03014
:1009000001F0ECF900F0D8F84FF4A06001F01CF908
:100910003D208DF8000002208DF8010000208DF8A8
:10092000020001208DF80300684601F0DBF800F0BA
:10093000CDFA01F0BDFC012000F03AFEBDE8084010
:1009400000F0E8BD01494861704700000090024096
:10095000044A0029D16901D0014300E08143D161FB
:1009600070470000009002402DE9F043174C00252D
:100970004FF0004CE16044F2F0595F1E60601BE0F4
:1009800000EB0514C5EB451606EB851602EB0616C3
:10099000C4F800C0C4E90196BD4203D204F11006B8
:1009A000E66000E0E06001EB0516D4F80880C6F8C8
:1009B0000880E4686D1CF4609D42E1D301EB0512F0
:1009C00042F8101C0249C860BDE8F0833C010020D9
:1009D00000900240F0B5164D00244FF0047CA96051
:1009E0005F1E28601AE000EB0415C4EB441606EB0A
:1009F000841602EB0616C5F800C0AE60BC4203D2F6
:100A000005F11006EE6000E0E86001EB0416D5F891
:100A100008E0C6F808E0ED68641CF5609C42E2D38B
:100A200001EB041242F8101C02490861F0BD0000FD
:100A30003C01002000900240426811B122F00041C8
:100A400001E042F000414160704700000549002884
:100A5000886902D040F4005001E020F40050886121
:100A6000704700000090024002680A43026070472D
:100A700010B501218C03204601F03CF92046BDE869
:100A80001040002101F036B90248016841F0200110
:100A900001607047008702400248016841F0100180
:100AA00001607047008702400248816941F480116B
:100AB00081617047009002402DE9F84301217D20BB
:100AC00001F030F9012000F00BFE4FF4004001F07E
:100AD000BDF9012001F0B4F93D2001F093F900289F
:100AE000FAD00B2001F0A6F90425ADF8005003243C
:100AF000DFF8C4908DF8024018268DF8036069462F
:100B0000484600F007FE0620ADF800002B4F8DF898
:100B100002408DF803606946384600F0FBFD43F65D
:100B20002010ADF80000DFF898808DF802408DF8B5
:100B300003606946404600F0EDFD01214FF02010B2
:100B400000F036FE0B20ADF800008DF802408DF865
:100B500003506946484600F0DDFD2802ADF800006C
:100B60008DF802408DF803506946404600F0D2FDF2
:100B70000820ADF800008DF802408DF8035069465A
:100B8000384600F0C7FD4FF4F850ADF800008DF87E
:100B900002408DF8035069460A4800F0BBFDA801E9
:100BA000ADF800008DF802408DF8036069464846B4
:100BB00000F0B0FDBDE8F8830008014000100140DE
:100BC000000C0140001401400068C0F30D40704764
:100BD000034A01460020926B0A4200D00120704770
:100BE00000800240034A0146002012680A4200D0F9
:100BF00001207047008702400149405870470000BB
:100C000000800240074900204A68116811F0802FD7
:100C100006D1CB0504D5890502D51046FFF7D4BF10
:100C2000704700003C010020034900200968C90703
:100C300000D0012070470000009002401CB54FF426
:100C400000742046FFF7C4FF012815D1204600F0AC
:100C500037F9684600F02EFA00980021401C0090F9
:100C600000F0D8FAFFF718FF0948016881F4007115
:100C700001601CBD00F0B0FEFFF7C4FF0028F9D1F1
:100C80004020FFF75FFE4FF48030FFF75BFE1CBD96
:100C90000C0C01402DE9F04188B00027744E044649
:100CA000009701973069884620F01C0502A801F0E2
:100CB00045F870490398704A0144914202D245F0C8
:100CC000080506E06D4908446D49884201D245F0A7
:100CD0000C0535614FF400420021404600F00AFB4C
:100CE00000287DD067480090401E0090FCD120680D
:100CF00080B301980121401C0190404600F05AFA4F
:100D0000400702D40198FF28F3D34FF4805200210A
:100D10004046019700F0EEFA002861D001980121C9
:100D2000401C0190404600F045FA800602D401982C
:100D3000FF28F3D310214046019700F03BFA41070A
:100D400003D54FF40061216200E02762800702D5DD
:100D5000676116E003E04FF48040606111E0206AB3
:100D60006169C00840EA510082B20021404600F0AB
:100D7000C1FA002878D06FF07F400090401E0090AC
:100D8000FCD1316840480140D4E901021043E268D7
:100D900054F8103F1A43104362681043A26810438E
:100DA000E26810432269104362691043A26910434C
:100DB000E2691043226A1043626A104308433060BC
:100DC000F4E90A010843D4E90212114308432169F6
:100DD000084361690843A1690843E169084300E0E9
:100DE00042E07060206AB060606AF060B1694FF6FE
:100DF00041700140D4E90B021043238D626B42EA3B
:100E000003421043A26B1043E26B10430843B061EE
:100E1000D4E910010843F0611C4881691C4A114063
:100E2000D4E912231A43D4E914352B431A43A36D92
:100E30001A43E36D1A43236E1A43636E1A43A36E7B
:100E40001A430A438261D4E91B121143626F54F8BA
:100E5000783F1A431143626841EA8201A268114354
:100E600041F400010160012008B0BDE8F0810000FC
:100E70000080024000D3CEFEC0E1E40040F1E9FD75
:100E800040787D01FFFF0F000F8120FF009002409E
:100E9000233FDEF80248016841F004010160704719
:100EA00000870240054B8A88184402640A78D1F80A
:100EB000011042EA012141647047000000800240B5
:100EC00001498863704700000080024010B501218D
:100ED0004FF4E03000F002FFFFF7CAFD00F0B0F978
:100EE000FFF7A2FE0128FBD01A4800F0C5F9194807
:100EF00001214FF4007240F81C1B002140F80C1B2C
:100F0000E0E80321102241600161C0E9061292016C
:100F1000016240F8102CD20313118365C0E913124B
:100F2000016641660421C0E91B12890341678901FA
:100F300081674912C1674900C0F884100121054842
:100F4000FFF7A8FE04490860BDE8104001210348EE
:100F5000FFF7FEBCA80D0020740000204000010037
:100F6000044A0029D16B01D0814300E00143D163E1
:100F7000704700000080024005490028086802D040
:100F800040F0040001E020F0040008607047000019
:100F90000080024005490028086802D040F008009F
:100FA00001E020F008000860704700000080024067
:100FB00010B54108C007024A0023FFF7E5F810BD4D
:100FC00000CA9A3B30B50022174C0260426021688B
:100FD00013460D68002D07DA14484169090602D549
:100FE00080214161836030BD0B681D04104B0CD41F
:100FF0000D68ED0509D50D68AD0506D50968C1F385
:101000000D4219688968121F416002602168816081
:101010001968C160C8682060086810B10868186065
:1010200030BD1031196030BD4001002000900240F9
:10103000480100200349A0FB0101C00F40EA410024
:101040007047000000CA9A3B05490028086802D092
:1010500040F0010001E020F001000860704700004E
:101060000087024070B51149884202DC494288423B
:1010700000DA084640F2131180FB0101000A40EA41
:1010800001600B12B121A0FB014503FB01510022BD
:1010900000FB0210810641EA94100549401800F057
:1010A000C1F8BDE87040FFF7EFBC000000204E0023
:1010B00056D891B110B5044640F20C70FFF79CFD74
:1010C000FFF7B8FF60604FF4E160FFF795FD206027
:1010D00010BD70B5D0E90040002C02DB06D100281D
:1010E00004DA64424FF00045404200E00025FFF77B
:1010F0005FFF02462146284600F09AF8FFF7CAFE35
:101100000420FFF76FFD0128FAD070BD30B51F4BEA
:101110000C46C0F30C01186800224160016841F0E0
:1011200040510160016841F00041016018494D697A
:101130006D0703D504254D6100254D600168521CE3
:10114000890301D4FF2AF9D3FF2A18D08068FFF75A
:1011500071FF60601868C06820601868016821F439
:10116000003101600B4A11688C688460CC68C460EF
:10117000C0681860086820B10868106003E00020AB
:1011800030BD10311160012030BD00003C01002055
:10119000009002404401002005490028086802D060
:1011A00040F0020001E020F00200086070470000FB
:1011B0000087024018B500220092124A13694FF6C8
:1011C000FF7403F01C0304EAC02018434FF4F863D3
:1011D00003EA8111014321F0020040F00100106197
:1011E0000098401C00901069C00702D00098FF28AA
:1011F000F6D30098FF2802D0506980B218BD0020B5
:1012000018BD0000008002400149086070470000DE
:1012100004870240024A1060101D01607047000000
:101220001C8702400149086070470000188702408F
:10123000024B19601043191D086070471087024067
:101240000248016841F001010160704700900240CE
:1012500000B50120FFF79EFEFFF726FC0120FFF7F7
:101260008BFE0120FFF7F2FB0248816941F0020189
:10127000816100BD009002400021016041608160F9
:10128000C160016141618161C1610162416281624C
:10129000C1620163416340228163C0E90F122022D1
:1012A000C0E91121C1640165416581658022C16584
:1012B000C0E918128166C16601674167D20481677F
:1012C000C0E91F1252105310C0E921231311C0E9C5
:1012D0002331C0F89410C0F89810C0F89C10C0E9F1
:1012E00028121212C0E92A125212C0E92C21C0F8A9
:1012F000B810704738B500230093114B1C694FF6A6
:10130000FF7504F01C0405EAC02020434FF4F86484
:1013100004EA8111014341F003005A61186109494F
:101320000098401C00901869C00702D000988842BD
:10133000F6D30098884201D1002038BD012038BD85
:1013400000800240FFFF04007FB50025064600959F
:1013500005F0A8FB00285ED0314C206870B34FF434
:101360008052002101200095FFF7C4FF0099491C1D
:10137000009101210846FFF71DFF800602D4009866
:10138000FF28F3D3102101200095FFF713FF410739
:1013900003D54FF40061216200E02562800701D58A
:1013A000656102E04FF4804060611E480268236A74
:1013B0006169194311430160016801601A4C20689A
:1013C00003F0F0FA0190606803F0ECFA0290A06874
:1013D00003F0E8FA03900321144806F062F903AB26
:1013E00002AA01A9304605F067FBA08B104901282D
:1013F00001D018B10BE04D72C82002E00120487204
:10140000FE20C8700B4A0A49084805F0D9FE30464C
:1014100005F0ABFB7FBD304605F062FB7FBD0000F1
:10142000A80D002000800240840D0020E0A60020CE
:10143000A0A6002080AB002002780A7042784A7093
:1014400082788A70FF22CA70FE220A71C2784A71BD
:1014500002798A714079C871704710B5102000F088
:1014600011F8002807D0012000F082F8BDE81040F4
:10147000102000F001B810BD01490860704700005D
:1014800014040140064A014600201268044B0A4039
:1014900014331B680B4202D0002A00D00120704791
:1014A0000004014030B51A4A8379016853B31368C8
:1014B0008B431360111D0B680468A3430B60017913
:1014C00011440B68046823430B60114B08331968FF
:1014D0000468A14319601C1D21680568A9432160A7
:1014E0004179102905D011440A68006802430A6056
:1014F00030BD196802681143196021680068014312
:10150000216030BD0079104402688A43026030BD1A
:10151000000401401FB50121052000F003FC482014
:101520008DF80F001024ADF80C4003A90F4800F00F
:10153000F1F80421002000F0D9F800208DF8040013
:101540000C2000948DF8050001248DF806406846B3
:10155000FFF7A8FF0A208DF808008DF809408DF8E4
:101560000B4002A800F0BEFA1FBD000000080140B9
:1015700010B504461221FFF71DFE800413D510217B
:101580002046FFF717FEC00708D00748406820B183
:10159000BDE81040054805F0C7BAFEE7BDE81040B9
:1015A000024805F0B6BA10BD74000020641C00208B
:1015B00010B504461121FFF7FDFD40F00302112193
:1015C0002046FFF797FE00280CD012212046FFF797
:1015D000F1FD40F0200212212046FFF78BFE00288B
:1015E00000D0012010BD000070B5054640F6FF7622
:1015F000304600F05DF8042813D10A4C206940F011
:10160000020020616561206940F0400020613046A1
:1016100000F04EF8052804D0216941F6FD72114012
:10162000216170BD0020024008490420CA68D20729
:1016300001D001207047CA68520701D502207047C7
:10164000C968C906FBD5032070470000002002408E
:101650000248016941F080010161704700200240A9
:1016600070B506460D460F2000F022F804280FD171
:10167000084C206940F00100206135800F2000F007
:1016800017F8052804D0216941F6FE721140216146
:1016900070BD000000200240034802494160034938
:1016A000416070472301674500200240AB89EFCDC0
:1016B00018B50346FFF7B8FFFF2407E02046009463
:1016C000401E0090FCD1FFF7AFFF5B1E012803D046
:1016D000002B00D1052018BD002BEFD1FAE7000048
:1016E0000149C1F8DC0070470000204210B58A07AC
:1016F00021F003040649120F21440F238C68934004
:101700009C438C608B68904003438B6010BD00004D
:1017100000000140F0B5CC78002204F00F03E4068D
:1017200001D58C7823430C784FF00F0C14F0FF0F89
:101730004FF0010E1BD005680E880EFA02F4264009
:10174000A64210D196000CFA06F725EA070703FA1D
:1017500006F5CE783D43282E02D0482E02D002E076
:10176000446100E00461521C082AE5D305600A8840
:10177000FF2A1CD94468002202F108060EFA06F579
:101780000E882E40AE420ED196000CFA06F7BC43EE
:1017900003FA06F7CE783C43282E00D14561CE7877
:1017A000482E00D10561521C082AE5D34460F0BDE3
:1017B000F0B5104D6B68440D260184B2C0F301579B
:1017C000B440C0F30342032F05D0C0020AD5032062
:1017D0009040834307E0686823F0706220F07060F7
:1017E000686002E0A34343F0706201B122436A6083
:1017F000F0BD000000000140416170470161704789
:10180000FEE7000002494CF6CC400860704700003B
:101810000030004000F014B870B504460D4645F2A3
:10182000555000F021F8204600F012F8284600F04C
:1018300015F800F005F8BDE87040FFF7E3BF0000C1
:1018400002494AF6AA2008607047000000300040B4
:10185000014948607047000000300040014988603D
:1018600070470000003000400149086070470000E8
:10187000003000400348808B012801D105F0B8BB3F
:1018800070470000840D002000B58BB009A802F05D
:1018900014FDFFF7BFFFDDE9092307A1684600F04B
:1018A000FFFF6846FEF71AFD82B26946054801F05F
:1018B0006DFF0BB000BD000025642C2025640D0ACF
:1018C000000000007409002038B50121082000F054
:1018D00029FA4FF40074ADF8004010208DF8030091
:1018E0000320064D8DF8020069462846FFF712FFD7
:1018F00021462846FFF782FF38BD0000000C01405A
:1019000030B5234889B0046804F0DCFA04F0B6FB73
:101910002148204A2149026081606FF07F43436083
:101920001F4DC0F80E500125858305A880E80E00E4
:1019300005AB07AA06A91B4805F0BEF802208DF8E2
:101940000C0000258DF80D508DF80E50200C8DF8F0
:101950000F00200A8DF810008DF8114003A800F048
:1019600001FC114811490095CDE9011005AB07AA0A
:1019700006A90C4805F068F80A4805F0ABF80948D4
:1019800005F0F3F80A49074805F0BFF809B030BD83
:10199000E8F7FF1FC0A81FE1840D0020C0A81F01A9
:1019A000C0A81F6C641C00209D3F0008F13F000888
:1019B0004913000811B4074800990268891A41F2D6
:1019C0008832914204D30099016018BC02F0BCBA7D
:1019D00018BC7047C0000020014802F02FBB000077
:1019E000641C0020FEE703460DE002782A2A03D09B
:1019F000202A01D37A2A01D9FF2070472C2A01D14D
:101A0000491EC9B2401C0029EFD1C01AC0B27047AC
:101A10000346012000E05843491EC9B2FBD270477B
:101A20002DE9F04F4FF0000A8B468046D1465646CE
:101A30005446554601782D2902D145F00205401C37
:101A400001782C2908D02A2906D02E290AD030392D
:101A50000A290AD300263446A80701D508F101084F
:101A6000002718E045F00105401CE90702D0641C7E
:101A7000E4B201E0761CF6B2401CDBE7F01B401E2E
:101A8000C1B20A20FFF7C4FF18F80710303900FB75
:101A900001AA7F1CFFB2B742F0D3052C00D9052460
:101AA0008BF8004000270EE0E01B401EC1B20A2068
:101AB000FFF7AEFFF21902EB08014978303900FB5D
:101AC00001997F1CFFB2A742EED321460A20FFF7FF
:101AD0009FFF0AFB0090A90700D54042BDE8F08FA8
:101AE0007047000030B50F23C27801780125F2B1AC
:101AF000144A126801F1E02102F4E062C2F5E062EA
:101B0000120AC2F10404D3404278A24084781C40F7
:101B10001443220181F80024007800F01F018D4059
:101B20004009800000F1E020C0F8005130BD01F014
:101B30001F0085404809800000F1E020C0F8805176
:101B400030BD00000CED00E0024908430249086086
:101B5000704700000000FA050CED00E00907090ECF
:101B6000002806DA00F00F0000F1E02080F8141DD4
:101B7000704700F1E02080F80014704730B4154839
:101B80000122002102704170FE23C370F82383708C
:101B900041F2883484808371C371017241722223BF
:101BA000438180F8341080F835104162C16206210B
:101BB000418782870221C18610230387052303867C
:101BC000827380F8321000F59C62014630BC4030D0
:101BD00005F0F6BAA0A6002030B58DB008A800F038
:101BE000ADF80121084600F091F80121052000F030
:101BF00099F801213248FFF7DBFD01213148FFF759
:101C0000D7FD4FF40040ADF8000003258DF80250D9
:101C100018248DF8034069462B48FFF77BFD01210E
:101C20004FF02010FFF7C4FD01214FF40110FFF722
:101C3000BFFD2020ADF800008DF802508DF8034064
:101C400069462248FFF766FD00212148FFF7B0FDF5
:101C500042F21070ADF818001E4908980024B0FB3D
:101C6000F1F0401EADF814004FF08045ADF81A4079
:101C7000ADF8164005A9284600F04AFC7021ADF8E1
:101C800004100120ADF806004FF4FA70ADF80A0018
:101C9000ADF80C4001A9284600F0CAFB41F288309B
:101CA000A8861021284600F0F3FB0821284600F002
:101CB000F5FB0621284600F0FAFB0DB030BD000010
:101CC000000318000002300000080140000C014031
:101CD00000202000A086010070470000044A00296F
:101CE000516901D0014300E0814351617047000018
:101CF00000100240044A0029916A01D0014300E02B
:101D0000814391627047000000100240044A00299C
:101D1000D16901D0014300E08143D16170470000E7
:101D200000100240044A0029916901D0014300E0FB
:101D3000814391617047000000100240F0B52C4BC8
:101D400059682C4A11F00C014FF00F0604D02A4CB0
:101D5000042903D0082903D0026028E0046026E0AB
:101D600059685A6806EA914102F480320D2901D07F
:101D7000891C00E00621BAB1DA6A12F4803FDA6AFF
:101D800002F00F0202F101020AD0DD6AC5F3031767
:101D9000DD6A7F1CB4FBF7F4C5F30325AD1C6C436F
:101DA000B4FBF2F24A43D7E7144A51430160596841
:101DB000134A06EA1111545C0168E14041605C6815
:101DC000072505EA1424145D21FA04F484605C6894
:101DD00005EAD424125DD140C1605A68032303EAA6
:101DE0009232074B1B1F9A5CB1FBF2F10161F0BD0F
:101DF0000010024000127A0040787D0100093D0089
:101E00002C010020034600205909094A01290AD063
:101E100002290AD0516A03F01F02012393400B42AA
:101E200000D0012070471168F5E7116AF3E7000060
:101E3000001002400149C8717047000000100240C4
:101E4000014908677047000000004242034AD16A16
:101E500021F470410143D16270470000001002403C
:101E600005F012B910B5002305E030F8024B21F857
:101E700013405B1C9BB29342F7D310BD2DE9F05F7A
:101E8000A0F10064154688468246B4F5802F50D2F2
:101E9000FFF702FCE70AC4F34906C6F58064A542D1
:101EA00000D82C46DFF890B04FF0006000EBC72060
:101EB00081464FF480622049FFF7D4FF00204FF69F
:101EC000FF7206E033183BF81310914203D1401C17
:101ED00080B2A042F6D3A04223D24846FFF784FB4B
:101EE00000205A4606E038F810108319401C22F8EA
:101EF000131080B2A042F6D348464FF480620E49D8
:101F000000F01CF8A54210D0281B08EB4408A2449E
:101F1000002685B24FF480647F1CA542C4D82C46AD
:101F2000C2E7224641465046EAE7BDE8F05FFFF7C8
:101F30008FBBBDE8F09F0000641400202DE9F04144
:101F400016460F460546002407E037F814102846C9
:101F5000FFF786FB641CA4B2AD1CB442F5D3BDE808
:101F6000F0817047322A74D2DFE802F0191C202574
:101F7000282B2B2E2E32323535353A3C3C3F42460B
:101F80004973734C4C4C4F4F525255595C5F6265CC
:101F9000686B6E7175787B7E8184878A8D90A1F5E0
:101FA000235105E0A1F51A41B03952E0A1F54A618B
:101FB000A1F500414DE0A1F5B361F9E701F5B87174
:101FC000F6E7A1F5E14144E0A1F5C441703940E0F4
:101FD000A1F5A35101E0A1F5CA61A1F5804138E066
:101FE000B831FAE7A1F5615133E001F6C861F4E7D1
:101FF000A1F5285130392CE0A1F5E15129E0A1F5F6
:10200000616126E001F5616123E001F5E15120E025
:1020100042F6302201E043F23812114419E001F592
:10202000615116E043F64872F7E744F25062F4E774
:1020300044F65852F1E745F2DC02EEE745F2604221
:10204000EBE745F66832E8E746F27022E5E701F58E
:10205000E14100F069BF47F69062DEE748F298522E
:10206000DBE748F6A042D8E749F2A832D5E749F6BF
:10207000B022D2E74AF2B812CFE74AF6C002CCE764
:102080004BF24C32C9E74BF2D062C6E74CF2E04269
:10209000C3E700000CB500222E48009201920168AF
:1020A00041F4803101604FF4A063016801F4003114
:1020B00001910099491C0091019911B90099994227
:1020C000F3D10168890342D50121019122490A68AF
:1020D00042F010020A600A6822F003020A600A68ED
:1020E00042F002020A604168416041684160416813
:1020F00041F480614160C16A184A1140C162C16AFD
:10210000174A1143C162016841F0806101600168B2
:102110000901FCD5416821F47C114160416841F41A
:10212000E8114160016841F0807101600168890136
:10213000FCD5416821F003014160416841F0020192
:1021400041604168C1F381010229FAD10CBD0192BD
:10215000FEE70000001002400020024000F0FEFFF9
:1021600044060100084902780A7042784A70827871
:102170008A70C278CA7002790A7142794A7101463E
:102180000020FEF78FBE0000CE00002000F02EBA27
:102190000F48016841F00101016041680D4A11409A
:1021A000416001680C4A11400160016821F48021FE
:1021B0000160416821F4FE014160016821F0A051F5
:1021C00001604FF47F0181600021C162FFF762BFAF
:1021D000001002400000FFF0FFFFF6FE70B5048C17
:1021E00024F001040484058B048C4FF6FF7606EA84
:1021F0000313134325F0F3052B4324F002020A4393
:1022000042F001010383018470BDF0B5048C24F019
:1022100010040484078B068C4FF6FF7404EA011542
:1022200027F4734704EA0331394304EA02220A43DC
:1022300026F02001294341F0100102830184F0BD02
:1022400070B50F4D0421284600F082F888B10D4C7E
:102250002068401C20600C48818B012901D0032993
:1022600007D10A4802F029F82168094801600021D5
:1022700041602846BDE87040042100F00BB8000022
:1022800000040040C4000020840D00201000002045
:1022900008000020C943018270470029018802D04C
:1022A00041F0010102E040F2FE321140018070472E
:1022B000F0B58DB007A8FFF741FD07984FF47A7588
:1022C000B0FBF5F10024661EB1F1807F0CD221F045
:1022D0007F404FF0E027401E78610F213046FFF726
:1022E0003DFCBC610720386101213046FFF736FC18
:1022F00000211648FFF75CFA42F21070ADF81400A6
:102300000798ADF81640B0FBF5F0401EADF8100090
:102310004FF08045ADF8124004A9284600F0F8F8C7
:102320006021ADF800100120ADF802006420ADF886
:102330000600ADF808406946284600F079F8042107
:10234000284600F06FF80DB0F0BD0000002020001E
:1023500002460020138A92890B4202EA010202D04F
:10236000002A00D0012070472DE9F0410C460E886C
:102370004988A2882389054616B3042E28D0082E42
:102380002E8C4FF6FF702BD026F480562E84AF8B08
:102390002E8C00EA022200EA013127F473473A4307
:1023A00000EA0330104326F400520A4342F48051FD
:1023B000A8832984E1882846BDE8F04100F09BB855
:1023C000FFF70CFFE1882846BDE8F04100F077B840
:1023D000FFF71BFFE1882846BDE8F04100F077B821
:1023E00026F480762E84AF8B2E8C00EA012100EA41
:1023F0000310104327F0F307384326F400720A4312
:1024000042F48071A8832984E1882846BDE8F04120
:1024100000F069B8002A828901D00A4300E08A43AB
:1024200082817047028B22F004020A4302837047C4
:1024300030B5028C22F001020284028C8388048B66
:1024400022F0020224F070050C882C430D891543FC
:102450004A882A43CD8885860B4DA84202D00B4D71
:10246000A8420DD122F008054A8923F403432A43E8
:1024700022F004058A882A438D891D43CB892B438A
:1024800083800483028430BD002C0140003401406D
:10249000028922F070020A4302817047028840F2EA
:1024A000F7331A40028002880A430280704702898B
:1024B00022F00702028102890A4302817047028BDF
:1024C00022F00C020283028B0A4302837047028BC4
:1024D00022F440620283028B4FF6FF7303EA01216C
:1024E0000A4302837047828B22F00C028283828B24
:1024F0000A4382837047828B22F440628283828BFC
:102500004FF6FF7303EA01210A43828370470000FC
:10251000028802F08F020280CA884B881A4303881F
:102520001A4302808A8882850A880285054A904279
:1025300002D0054A904201D1097A018601218182A7
:1025400070470000002C01400034014038B50C46B3
:102550000546052323A1204604F0B4F8040040D02A
:102560000121FFF740FAFF2804D020446946FFF715
:1025700057FA288002212046FFF735FAFF2804D0B9
:1025800020446946FFF74CFAA87003212046FFF764
:102590002AFAFF2804D020446946FFF741FAE87080
:1025A00004212046FFF71FFAFF2804D02044694683
:1025B000FFF736FA287105212046FFF714FAFF28A5
:1025C00004D020446946FFF72BFA687106212046A3
:1025D000FFF709FAFF2804D020446946FFF720FAE4
:1025E000A87138BD5848544F4400000002480168A3
:1025F000491C0160704700000000002010B50D4C20
:1026000040F22551204600F0C4F8002811D02046A1
:1026100000F03CF90849C96A01F10C024B89985451
:102620004889401C80B24881B0F5806F01D30020FA
:10263000488110BD004C00407C00002010B50D4CBE
:1026400040F22551204600F0A4F8002811D0204681
:1026500000F01CF90849896A01F10C024B89985471
:102660004889401C80B24881B0F5806F01D30020BA
:10267000488110BD005000407C00002070470000E1
:1026800010B50D4C40F22551204600F082F800288C
:1026900011D0204600F0FAF80849C96901F10C028E
:1026A0004B8998544889401C80B24881B0F5806FAE
:1026B00001D30020488110BD003801407C0000207B
:1026C00010B50D4C40F22551204600F062F800286C
:1026D00011D0204600F0DAF80849096A01F10C022D
:1026E0004B8998544889401C80B24881B0F5806F6E
:1026F00001D30020488110BD004400407C00002030
:1027000010B50D4C40F22551204600F042F800284B
:1027100011D0204600F0BAF80849496A01F10C02CC
:102720004B8998544889401C80B24881B0F5806F2D
:1027300001D30020488110BD004800407C000020EB
:1027400010B500221146074804F0A0FD00221146F2
:10275000054804F09BFD0022BDE8104011460348E7
:1027600004F094BD54010020640500207409002089
:102770000029818902D041F4005101E021F4005187
:10278000818170470246002012880A4200D0012051
:10279000704770B501F01F0501260024C1F34213F4
:1027A00006FA05F2012B0FD0022B0FD0838A4FEAD5
:1027B00011210088134206FA01F600EA060001D052
:1027C00000B10124204670BD8389F0E7038AEEE75B
:1027D00010B5C1F3421301F01F040121A140012BE8
:1027E00007D0022B07D01430002A026805D00A4314
:1027F00004E00C30F8E71030F6E78A43026010BDC1
:1028000030B50446008A85B00D464CF6FF7108408D
:10281000E98801432182A0894EF6F3110840A98876
:102820002A8911436A8902431143A181A08A4FF684
:10283000FF410840A9890143A1826846FFF77EFA5B
:102840001148844201D1039800E00298642200EB11
:10285000C00101EB001029686FF018058900B0FB7A
:10286000F1F0B0FBF2F109010B096B4300EB8300BF
:10287000322303EB0010B0FBF2F000F00F0008432E
:10288000208105B030BD0000003801408088C0F3D1
:1028900008007047C1F3080181807047FEE700001F
:1028A0000FB4084B10B504A902AA039800F020F851
:1028B000044602A9002000F0BCF9204610BC5DF8D7
:1028C00014FB0000332C0008004870475001002022
:1028D00002E008C8121F08C1002AFAD170477047E9
:1028E000002001E001C1121F002AFBD17047000047
:1028F0002DE9FF4F8BB088460546002606E02528C7
:102900000BD0DDE90D1290476D1C761C287800284D
:10291000F5D10FB03046BDE8F08F0024A146A246A5
:102920000122AE4900E0044315F8013F203B02FAC2
:1029300003F00842F7D128782A2810D06FF02F0230
:102940002878A0F13001092915D809EB890102EB9B
:10295000410144F0020400EB01096D1CF0E758F856
:10296000041B5FEA010903D544F40054C9F10009CE
:1029700044F002046D1C28782E2817D115F8010F99
:1029800044F004042A280ED06FF02F022878A0F11A
:10299000300109290AD80AEB8A0102EB410100EB58
:1029A000010A6D1CF2E758F804AB6D1C28786C28FE
:1029B0000FD006DC4C2817D068280DD06A2814D117
:1029C00004E0742810D07A280FD10DE044F40014EC
:1029D0000AE044F4801401E044F440146978814230
:1029E00002D104F580146D1C6D1C2878692865D00F
:1029F00006DC00288DD0632827D0642806D15DE04E
:102A00006E2808D073282AD0752877D0DDE90D12FA
:102A10009047761CE0E0C4F30250022809D0032856
:102A20000DD0D8F8001004280DD00E6008F104086D
:102A3000D2E0D8F80010F217C1E90062F6E7D8F842
:102A400000100E80F2E70E70F0E718F8041B8DF806
:102A5000001000208DF80100EB46012003E058F83B
:102A600004BB4FF0FF3061074FF0000701D40AE0CC
:102A70007F1C57450DDA8742FADB1BF80710002947
:102A8000F6D106E07F1C8742FCDB1BF8071000290B
:102A9000F8D1DDE90D23A9EB07008146214600F0BE
:102AA000B1F83044C61904E0DDE90D121BF8010B42
:102AB00090477F1EF8D22146484688E058F8040B1C
:102AC000C4F302514FF00A0B032900D100B20429CC
:102AD00000D140B2002802DA40422D2102E0210557
:102AE00005D52B218DF82410012104E006E0E10733
:102AF00010D02021F6E708AF089113E058F8040B36
:102B0000C4F302514FF00A0B032900D180B204290B
:102B100000D1C0B20021EEE75946FDF7D7FC3031B5
:102B200007F8011D0028F7D1ADEB070000F1200BDD
:102B3000600702D524F4803401E04FF0010ADA4541
:102B400002DDAAEB0B0000E00020824600EB0B0147
:102B500008980144A9EB01000A90E00306D4DDE9DE
:102B60000D2321460A9800F04DF806444FF0000965
:102B700008E009A911F80900DDE90D12904709F1F3
:102B80000109761C08998945F3DBE0030CD5DDE9E2
:102B90000D2321460A9800F035F8064404E0DDE9EB
:102BA0000D1230209047761CBAF10001AAF1010AFB
:102BB000F5DC05E0DDE90D1217F8010B9047761CF6
:102BC000BBF10001ABF1010BF4DC0A982146DDE911
:102BD0000D2300F005F806446D1C97E60928010056
:102BE0002DE9F041044600251E461746880404D40A
:102BF00005E039462020B0476D1C641EF9D52846F3
:102C0000BDE8F0812DE9F041044600251E469046BE
:102C1000C80301D5302700E02027880404D505E04B
:102C200041463846B0476D1C641EF9D52846BDE8BC
:102C3000F0810A68531C0B60107070472DE9F74F44
:102C400082B00446B0F97E504FF0000801F1180040
:102C50000F4646464FF00A094FF0300A4FF00C0B72
:102C600000902FE005EB4501606F01EBC50100EB23
:102C7000C101009802F096FEE0B105EB4500616FDE
:102C800000EBC50509EBC5000A5A521C0A52616FD8
:102C90000AEBC500084428223946FDF7E9FA616FBE
:102CA0000BEBC5000844049905B02422BDE8F04FA1
:102CB000FDF7DEBAB4F878006D1C95FBF0F100FB6F
:102CC0001155761CB4F87800B042CBDCB8F1000F97
:102CD0003BD1B4F87800B4F97A10884202DA401C8B
:102CE000A4F87800B4F97C0054F8741F00EB40029B
:102CF00002EBC00501EBC500D7E90612C0E90012DE
:102D000021680822388C02EBC50288522268002113
:102D100009EBC500115221680AEBC50008442822BE
:102D20003946FDF7A5FA21680BEBC50008442422BB
:102D30000499FDF79DFAB4F90800B4F90610401C97
:102D400090FBF1F201FB1200208105B0BDE8F08F8D
:102D500010B40B6814682344036049685268114436
:102D6000416010BC03F01ABF10B54FF4FA2188423D
:102D700002DC4942884200DA0846FEF773F9012076
:102D800010BD2DE9F8430124002605460C274FF01D
:102D900030081EE006EB4601009501EBC60107EB8B
:102DA000C102686F08EBC10100EB010C831804EB52
:102DB000440101EBC40207EBC201014408EBC2026B
:102DC0001044624600F01BF8002800DA2646641C16
:102DD00024B2B5F87800A042DCDC06EB4601A5F889
:102DE0007E6001EBC60207EBC201686F08EBC2020E
:102DF000014410442A46BDE8F84300F063B82DE9C9
:102E0000F0470D46904607461C46082203F115017F
:102E100005F11500DDF82090FDF767FA4FF0FF3659
:102E200000B3A97BA27B914242D88A4244D8297C34
:102E3000227C91423CD88A423ED8697C627C914295
:102E400036D88A4238D8698A628A914230D88A4212
:102E500032D8297D227D91422AD88A422CD8002856
:102E600026DC29E0E38BEA8B581C824220D8501CD8
:102E7000834221D809F1580107F1180008F118041C
:102E80009A4206D94FF00802FDF72FFA00B278B93E
:102E900015E04FF0080205D22046FDF726FA00B2F1
:102EA00050B90CE02146FDF720FA00B2002802DDFF
:102EB0003046BDE8F08702DA4FF00100F9E74FF045
:102EC0000000F6E72DE9F8438046B2F878000D4699
:102ED000144618B994F86200032814D004F1A8012C
:102EE00004F180000E46074600F0FAFC2B464246ED
:102EF000314638460094FFF782FF217B802904D2B7
:102F000001280BD00620BDE8F883012806D02A4608
:102F10004146204604F098FA0820F4E7204602F0E3
:102F20002FFF0520EFE700002DE9F34F8B4600212E
:102F30006B4C6A4BBBFBF4F485B0198059809980C7
:102F4000CDE902410D460A4608465E46654CDFF86B
:102F500098E1A9469A4627E0BAF802304FF4C87CB7
:102F600003F2B277B7FBFCF80CFB187CBCF1000F46
:102F700033D04FF0640CB7FBFCF80CFB18771FB193
:102F80009F07B7F1004F28D0361B65EB090540F2CB
:102F90006D17C91942F100025B1CAAF80230BAF899
:102FA00000305B1CAAF80030371B75EB0903D3D245
:102FB000BAF80030564603F2B2739DB22B0AECB257
:102FC000AAF8005004EB0323029CADF80030641A09
:102FD00069EB0203274601213CE0B6EB0E0665EBE8
:102FE00009054FF4B777D4E701290BD0032909D09D
:102FF000052907D0072905D0082903D00A2901D0BF
:103000000C2904D11F3C53F1FF3329D41F3002296E
:1030100008D004295CD006295AD0092958D00B2998
:1030200056D014E04FF4C872B5FBF2FC02FB1C5200
:10303000F2B36422B5FBF2FC02FB1C520AB1AA07F0
:1030400040D01C3C53F1FF330AD41C22801801F1FC
:103050000101C9B24FF01C02A21A73F10002C3DAD7
:103060008DF802101E49381ABBFBF1F200F1010085
:10307000AAF804008DF8030001FB12B04FF461615F
:10308000B0FBF1F28DF80420B0FBF1F201FB12036A
:103090004FF03C02B3FBF2F38DF80530B0FBF1F3D7
:1030A00001FB1300B0FBF2F102FB1101009A00E0FA
:1030B00008E005980260BDF804208280817107B0A5
:1030C000BDE8F08F1D3C53F1FF33C9D41D22BDE78D
:1030D0001E3C53F1FF33C3D41E22B7E7C8000020C3
:1030E000805101008033E1010085E20102490A6854
:1030F0001044086070470000240100207FB50E4690
:103100004FF40075014600242A461548FDF7B0F833
:103110003246134902A8FFF719FA29461048FDF76D
:10312000C0F8104890F86200052815D10E48808B31
:10313000032811D19DF80E109DF80D00CDE9000176
:103140009DF80C309DF80B209DF80A10BDF8080082
:1031500002F0D0FF0549086004B0204670BD0000B1
:1031600064100020E0A60020840D0020C400002090
:1031700070B54FF40075014600242A460448FDF757
:1031800077F829460248FDF78CF8204670BD00000C
:10319000641200202DE9F04F00278FB001460A2469
:1031A0003E46B8460A974FF40072FE480B97FDF76B
:1031B0005FF8FDA1FB48FDF77FF8FE4DDFF8F893BF
:1031C0004FF0010A4FF4807BB0B1A9F81CA059461A
:1031D000FA48FDF766F8FEF7D1FC85F80980C820AB
:1031E000E87014224946F648FEF748FEF54A29469B
:1031F000F54803F0E5FF0C24F4A1EA48FDF75CF87C
:10320000F0B1A9F81C80FEF7B9FC5946EB48FDF770
:1032100048F885F809A0FE20E8701422E649E8483D
:10322000FEF72CFEDF48FDF759F882B2DD49EA4887
:1032300000F0ACFAE34ADF49E34803F0C1FF0B2496
:10324000E6A1D848FDF738F800B10224E5A1D54839
:10325000FDF732F800286FD0D24D0DF1280A401B3F
:1032600084B207E00AF806007F1C761CF6B2FFB2B3
:10327000052E7BD2E0192844007A2C28F2D1504642
:10328000FDF740F8DA497F1CFEB208700020C34603
:10329000CDF828805746CDF82C8006E03954761CAE
:1032A000401CC0B2F6B20528E3D2A1192944097A1C
:1032B0002C29F3D10AA8FDF725F8DFF83483761C12
:1032C000F6B288F801000020DA46CDF828B0CDF833
:1032D0002CB006E03954761C401CC0B2F6B205286A
:1032E000C7D2A1192944097A2C29F3D10AA8FDF7DC
:1032F00009F888F80200761CF6B20020CDF828A064
:10330000CDF82CA006E03954761C401CC0B2F6B2B1
:103310000528AED2A1192944097A2F29F3D10AA888
:10332000FCF7F0FF88F80300761CF6B20020CDF819
:1033300028A0CDF82CA007E08AE13954761C401C67
:10334000C0B2F6B2052811D2A1192944097A2C2954
:10335000F3D10AA8FCF7D6FF88F80800761CF6B26D
:103360000020CDF828A0CDF82CA007E07CE039544F
:10337000761C401CC0B2F6B2052875D2A1192944AA
:10338000097A2C29F3D10AA8FCF7BCFF88F80900B8
:10339000761CF6B20020CDF828A0CDF82CA006E0CF
:1033A0003954761C401CC0B2F6B205287ED2A11951
:1033B0002944097A2C29F3D10AA8FCF7A3FF88F83D
:1033C0000A00761CF6B20020CDF828A0CDF82CA07B
:1033D00006E03954761C401CC0B2F6B2052865D20E
:1033E000A1192944097A2F29F3D10AA8FCF78AFFE9
:1033F00088F80B00761CF6B20020CDF828A0CDF896
:103400002CA006E03954761C401CC0B2F6B2052848
:103410004CD2A1192944097A2C29F3D10AA8FCF726
:1034200071FF88F80400761CF6B20020CDF828A0C1
:10343000CDF82CA006E03954761C401CC0B2F6B280
:10344000052833D2A1192944097A2C29F3D10AA8D5
:10345000FCF758FF88F80500761CF6B20020CDF87E
:1034600028A0CDF82CA007E020E03954761C401CA1
:10347000C0B2F6B2052819D2A1192944097A2C291B
:10348000F3D10AA8FCF73EFF88F80600761CF1B2DB
:1034900000205646CDF828A0CDF82CA00AE03A54DA
:1034A000491C401CC0B2C9B2052803D306200FB086
:1034B000BDE8F08F62182A44127A2F2AEFD10AA8A9
:1034C000FCF720FFC5B288F8075044460A964FF42F
:1034D000007134480B96FCF7E4FEA07961792279FB
:1034E00009950692CDE90710207A02ADE37AA27A17
:1034F000617A85E80F00E178A078CDE90001637872
:1035000022783CA12748FFF7CBF92648FCF7E6FED6
:1035100082B22449434800F039F9207861780006E6
:1035200040EA0140A17840EA0120E178084301F037
:1035300039FA0C90207A617A000640EA0140A17ABB
:1035400040EA0120E17A084301F02CFA0D9020793D
:103550006179000640EA0140A17940EA0120E17961
:10356000084301F01FFA0E9020786178000640EAC7
:103570000140A17840EA0121E0780143C9F8001038
:1035800021796279090641EA0241A279484641EA75
:103590000221E2791143C9F80810217A627A0906FA
:1035A00042E00000640E00204531204D61737465D7
:1035B00072000000A0A60020840D0020A0A500201D
:1035C0000060030880AB0020E0A6002045312053B6
:1035D0006C617665000000007409002041540D0AFA
:1035E0000000000041542B534554503D00000000A2
:1035F000AC00002041542B4554424B3D25642C2502
:10360000642C25642C25642F25642C25642C2564CA
:103610002C25642F25642C25642C25642C25642FEF
:103620000D0A00006405002041EA0241A27A41EA45
:103630000221E27A11434160142238493848FEF7EA
:103640001DFC0EAB0DAA0CA9364803F035FA042474
:1036500035A13848FCF730FE00285CD04FF40071EB
:103660003448FCF71EFE2F4CE06803F0BDFA00F072
:10367000FF0BE06803F0B8FAC0F3072AE06803F034
:10368000B3FAC0F30749E06803F0AEFA070EA0688A
:1036900003F0AAFAC0B20090A06803F0A5FAC0F344
:1036A00007210191A06803F09FFAC0F3074302933A
:1036B000A06803F099FA4FEA106CCDF80CC060686E
:1036C00003F092FA00F0FF08606803F08DFAC0F38F
:1036D0000726606803F088FAC0F30745606803F0C6
:1036E00083FA020E06A880E8800E9DE80B10059074
:1036F000CDE903312B46AFF204118DE840110D489E
:10370000FFF7CEF80B48FCF7E9FD82B209490A48F9
:1037100000F03CF805242046C9E60000840D002096
:1037200000600308641C002041542B453153484F6E
:10373000573D0000640E0020640500200178124A05
:1037400061B101290FD0022912D0042915D0032913
:1037500018D1D062017A406804F052BDD061017A7C
:10376000406804F019BC1062017A406804F078BC2B
:103770005062017A406804F0DDBC9062017A4068D2
:1037800004F0A4BD704700007C0000202DE9F04744
:10379000007815460C4650B1012823D002283BD0B2
:1037A000032860D004281BD10026474F83E0002661
:1037B000464F0DE040213846FEF7E4FF0028F9D0DF
:1037C00014F9010B81B23846FFF764F8761CB6B2E3
:1037D000AE42EFD340213846FEF7D4FF0028F9D09F
:1037E000BDE8F08700263A4F0DE040213846FEF74D
:1037F000C9FF0028F9D014F9010B81B23846FFF750
:1038000049F8761CB6B2AE42EFD340213846FEF7F7
:10381000B9FF0028F9D0E3E7DFF8B8904FF48058FB
:1038200041464846FDF7EAFF00262B4F0DE04021B8
:103830003846FEF7A7FF0028F9D014F9010B81B232
:103840003846FFF727F8761CB6B2AE42EFD34021D8
:103850003846FEF797FF0028F9D041464846BDE8B4
:10386000F047FDF7C9BF00261C4F0DE04021384648
:10387000FEF788FF0028F9D014F9010B81B2384611
:10388000FFF708F8761CB6B2AE42EFD340213846B7
:10389000FEF778FF0028F9D0A2E740213846FEF76E
:1038A00071FF0028F9D014F9010B81B23846FEF7F8
:1038B000F1FF761CB6B2AE42EFD340213846FEF798
:1038C00061FF0028F9D08BE700500040003801402C
:1038D00000440040000C014000480040004C004003
:1038E000137C8B7352F8013FC1F815305368C1F84F
:1038F0001930D37A0B74137B4B74B2F80D304B82B2
:10390000137C0B750023CB83116881615168C16101
:103910007047000010B4D0E9001301EBD17222F01F
:103920000104091B064C5210614303EB412101EBDA
:10393000D1714910C0E9002110BC03F02FB900007B
:1039400065CD1D002DE9FE430026044680F8C863BE
:1039500090F86200C01E05281BD8D4F89004C1431B
:1039600041F38011491C14D020F04000C4F89004A9
:103970002046FFF706FA84F86C04052801D00628D3
:1039800007D1E07C10B9207BFF2802D1032084F806
:103990006C0494F86C1404F57378092961D2DFE89B
:1039A00001F060606058600514601A0094F86200CD
:1039B000042803D0052854D004214FE041460620B6
:1039C00003F01EFE40B3052148E094F8620006288B
:1039D00047D0062142E094F86200072802D0082868
:1039E00035D11AE0D4F89004C14341F38021491C39
:1039F00007D020F48060C4F890040821204603F02A
:103A000050FED4F89004C14341F3C021491C28D092
:103A100020F40060C4F8900423E0D4F89004C1437B
:103A200041F34021491C07D020F40070C4F89004F1
:103A30000721204603F035FED4F89004C14341F33A
:103A4000C021491C0DD020F40060C4F89004072167
:103A500004E094F86200032803D00321204603F019
:103A600020FE94F8620004F5846504F1CC0709286F
:103A70007DD2DFE800F0051F5E218F633D2121002C
:103A8000284602F0C1FF2146284602F04BFE78B1DD
:103A9000204601F0FBFA01F053FB204601F0BDFA8D
:103AA000204602F06DF93946204602F024FC39E048
:103AB000012138E0002136E04146052003F0A0FD59
:103AC000B0B1A0690090E06902903348694642684D
:103AD000384602F02DFC30223946284602F06FFFAE
:103AE00018B90121204603F0DCFD204600F0EFFB71
:103AF0004146032003F084FDD8B1A4F87860A4F80F
:103B00007C60E07C50B9207BFF2807D0204602F083
:103B100037F9052084F86C04014604E094F862004B
:103B2000032837D0032103B02046BDE8F04303F05B
:103B3000B8BD2046BDE8FE4300F0C9BB41460220A7
:103B400003F05EFD10B1204601F0D7FF414604208E
:103B500003F056FD88B139463E46204602F0FAFA97
:103B600040223146284602F02AFF70B100E011E001
:103B7000B4F88603401CA4F88603204600F0A7FB97
:103B80002046BDE8FE4301F01CBF0121204603F0A2
:103B900088FDF2E7BDE8FE83641C00202DE9F843B0
:103BA00090460E4605005CD0B8F80A002A2855D386
:103BB0000120D8F8044000F0F7FEE18988424DD199
:103BC00040F2046000F0F0FE618A884246D14FF472
:103BD000006000F0E9FE218A88423FD140F60600ED
:103BE00000F0E2FEA189884238D1E0690090D4F863
:103BF0002610686818B1814203D1012702E000272E
:103C000003E000270FB1012300E0002304F11602B6
:103C10006946284604F06CF9A08A00F0C5FE012828
:103C20001CD1DFB1022000F0BFFEA082E069C4F821
:103C300026006868E0610622521E12F0FF0204EBC3
:103C40000200817D80F82010A154B15C8175B15CC7
:103C50008171F1D1AA69414628469047404603F058
:103C6000F7F8BDE8F88330B400280ED049688268C0
:103C70004468D1F81A3014401340A34205D1002300
:103C80008A1D30BC1A3104F033B930BC70470000D3
:103C90002DE9FC410E46054614460E21304603F040
:103CA000F9F818B16FF00100BDE8FC812946204603
:103CB00001F04CFA08B1234B28E04FF0704002F0BD
:103CC00093FF216800EA01074FF0604002F08CFF8B
:103CD000874222D101208DF8000000208DF80100DC
:103CE0005E208DF80200206802F07EFFC0F30640DF
:103CF0008DF80300206802F077FF000A8DF80400B9
:103D0000206802F071FF8DF805006B4605F1250271
:103D10003146284600F0FCF8C6E7A86821686A68C2
:103D200001400240914203D0E86838B105F10C042B
:103D300032462146284600F007F8B5E76FF0030049
:103D4000B2E70000C08300082DE9F05F0E4682460E
:103D500000F1250B17464FF0FF385146304601F071
:103D6000F5F908BB4FF0704002F03EFF316800EA01
:103D700001044FF0604002F037FF844214D09EB13E
:103D8000306888B10121304600F0BAF900280DDB17
:103D9000DFF8B49000EB800509EB8504A07B38B117
:103DA000012807D037B10BE06FF00900BDE8F09FA4
:103DB0000120A0733146504600F098F880462FB39A
:103DC000A07B4E46022802D0012808D03AE004F138
:103DD00008035A463946504600F09AF831E000216F
:103DE0003C46207B012803D12468002CF9D171B115
:103DF00021890022032002F003FF040022D039466B
:103E000002F0AAFF40B1204603F022F81AE03C4637
:103E1000384603F096F8ACB1032002F05BF90100DC
:103E2000F1D00020C1E9000456F8250008B905E0EA
:103E300010460268002AFBD1016001E046F8251017
:103E4000002080464046B1E7F89E00202DE9F05F53
:103E50001746DDE90B9B884682461E4600222A2132
:103E6000032002F0CDFE05003CD06C680D9800F0F8
:103E70009BFDA0820620401E10F0FF0004EB000115
:103E8000325C8A7519F8002081F820203A5C2254AF
:103E900018F800208A71EED10A980068E061DBF81A
:103EA0000000C4F82600012000F07EFDE0814FF400
:103EB000006000F079FD208240F2046000F074FDA3
:103EC000608240F6060000F06FFDA081DAF818204D
:103ED0005046294690470446284602F0B9FF20463E
:103EE000BDE8F09F4FF0FF30FAE700001FB5012357
:103EF000064C021DCDE90213CDE9002400F1250393
:103F00001946A21FFFF7A2FF04B010BDC683000828
:103F10002DE9F0414D680E4607460624641E14F054
:103F2000FF0405EB0401185D2855105D8871F5D17B
:103F30004FF4006000F038FDA88131463846BA6978
:103F4000BDE8F041104700002DE9F0410024124F78
:103F5000A04604EB840507EB8506F07B401CC0B24D
:103F6000F073B17B022902D0012903D00DE0F028C3
:103F700002D20AE0022808D357F8250018B100F051
:103F800078F947F8258086F80E80641CE4B20A2C84
:103F9000DFD3BDE8F0810000F89E002070B5044634
:103FA00040680D46808900F0FFFCB0F5006F04D03A
:103FB000A0F5006006380AD112E021462846FFF736
:103FC00052FE6FF00D01204602F064FF18B120464A
:103FD00002F03EFF0AE02946204601F067F905E0BD
:103FE000224605F125012846FFF7D8FD002070BDC7
:103FF00010B50446082001F07FFFB8B1732120629C
:1040000084F82F10742184F830100A4961610A493C
:10401000A16104F125010160204601F0AFFD14F813
:104020002E0F40F042002070002010BD4FF0FF30F6
:1040300010BD0000913C0008D95C000870B5054631
:1040400001F00AFE040009D02A69294690470500BC
:1040500002D0204602F0FCFE284670BD4FF0FF3033
:1040600070BD034610B50020024602E09C5C604033
:10407000521C8A42FAD310BD70B50646C8680C4679
:10408000401CC860012805D1316821603168616039
:1040900000216181B4F908500121A940814203DD6A
:1040A00002F0A6FD054600E0E1602168306881422B
:1040B00000DD084602F09CFDC0F11E00854200DDD7
:1040C0000546B4F90A10A94205DD6068A1EB0501B7
:1040D00040FA01F005E005DA6068A5EB010100FA9D
:1040E00001F0606030682168A0EB0100616808445D
:1040F000606040FA05F020606581306070BD0000AE
:104100002DE9F35F4FF00A0A4FF00001DFF824B108
:104110000400D14652468C460F46D0460E4611D07A
:104120004548057805EB85030BEB8300837B022B69
:1041300008D123684068834204D168B2BDE8FC9F7F
:104140000A2A07D1DFF8ECE001EB81030EEB8300D4
:10415000807B48B101EB810B0EEB8B00837B012B45
:1041600004D0022B18D026E04AB224E01CB1236808
:104170004568AB4215D05EF82B3033B1C57BB542F4
:1041800019D34FFA81F82E4615E0C37B634512D34D
:104190004FFA81FA9C460EE03CB123684568AB4279
:1041A00003D12548017048B2C8E7C07BB84202D3AA
:1041B0004FFA81F90746491CC9B20A29C0D34FF00A
:1041C000FF310A2A02D10198C00731D00198800737
:1041D0002ED44FF0000B0A2A01DAD5B219E0B9F15A
:1041E0000A0F02DA09F0FF0513E0BAF10A0F02DA4A
:1041F0000AF0FF050DE0B8F10A0F19DA08F0FF0523
:104200000C4F05EB850657F8260000F032F847F80A
:1042100026B0084805EB850200EB8200594680F87D
:104220000EB00CB122684260C1730348057084E788
:10423000084683E7F89E0020F80000200021A8B17E
:10424000B0F5803F01D3000C1021FF2801D9000AEE
:104250000831102801D30009091D042801D3800862
:10426000891C022800D3491C084670474FF0FF30D4
:10427000704770B5044608E02546D5E9004002F0D5
:10428000E7FD2946032001F0EDFE002CF4D170BDBE
:104290000268002A07DB4368002B04DB0A604068E1
:1042A000886000208880704710B50446FBF7CEFF79
:1042B000B0FBF4F104FB110010BD1CB504466846C8
:1042C000FCF7F8FE00982060019860601CBD7CB58A
:1042D000044600200090019094F8C80304F584651A
:1042E00030B90021284602F02BFB00287CDB4ED0A1
:1042F00004F5FC716A460E46284602F0F1FAC4F84D
:104300002403002870DB09D16A463146284602F0B2
:10431000FFFAC4F82403002866DB38D04FF0010010
:1043200084F8C803D4F8240322285DDB04F180015B
:10433000304602F033F994F8820094F87110884204
:1043400025D194F88600A17C884220D104F19801FF
:1043500004F1580001F026FB050008D10098002860
:1043600005DD694604F27442084603F0F8F894F853
:1043700081000C280BD2DFE800F00B161C27330A53
:104380000A0A11222E062946204600F04AF87CBD72
:104390002A466946204600F0ABFA7CBD29462046F5
:1043A00000F036F97CBD2A466946204600F0AAF89E
:1043B0007CBD2A466946204600F07CF97CBD294632
:1043C000204600F0D4F87CBD2A466946204600F01D
:1043D000D8F97CBD08E02946204600F03EFAF8E70F
:1043E000D4F82403302804DA0121204603F059F9D7
:1043F000EFE794F862000628EBD2DFE800F0030351
:1044000003030304E5E7002DE3D104F1A8013046DE
:1044100002F004F9D4E92A20D4F8B41002F094FE92
:10442000D7E72DE9F0470446D0F82403402805DA01
:104430002046BDE8F047012103F033B900295FD1E0
:1044400094F8621004F5FC7604F180084FF47A7554
:1044500004F5737A04F1A807092946D2DFE801F0D0
:1044600050505045454536050500D4F8900404F1F8
:10447000980140F04000C4F8900404F1280001F0D5
:1044800091FA81463946304602F02FF8B9F1000F13
:1044900015D03A464146204602F0D6FF94F96C000A
:1044A00094F86D10002801DD854001E04042C540D0
:1044B00069435246BDE8F047032003F0B5B83A46D9
:1044C00041462046BDE8F047FEF7B8BB94F96C00C2
:1044D00094F86D10002801DD854001E04042C540A0
:1044E00069435246032003F09FF83946304601F0F5
:1044F000FCFFD4F8900440F04000C4F89004DEE7DC
:10450000BDE8F0873EB50A4690F86F1001292DD11D
:10451000D0F824132C2905DA03B00121BDE830407E
:1045200003F0BFB890F86230062B1FD2DFE803F02B
:104530001E1E1E1E1E03044600F18005694610461D
:10454000FFF7A6FE2A4604F1CC016B4620460D4635
:1045500001F06CFE3622294604F5846002F02FFA41
:10456000002803D10121204603F09BF83EBD7CB515
:10457000044690F86F00012807D1D4F824033628A8
:1045800004DA0121204603F08CF87CBD94F8620027
:104590000928FAD2DFE800F005050505050505063E
:1045A0000600F2E704F1A8010E4604F5FC7001F0E4
:1045B000CDFF04F1980104F1280001F0F3F905465C
:1045C00004F1B40104F1580001F0ECF9B4F88213DD
:1045D000B4F8A220491E9142D7D10028D5D0002D91
:1045E000D3D004F55A703146054603F051F86946B8
:1045F00004F1900002F088FF6B462A4604F55871DA
:10460000204603F0BFFB94F8A50084F863007CBD4E
:104610007FB50446D0F824032C2804DA0121204673
:1046200003F03FF87FBD0029FCD194F8620009280F
:10463000F8D2DFE800F00505050505053B06060094
:10464000F0E704F1980104F1280001F0ABF994F8C7
:104650008C130029E6D00028E4D0B4F88A03B4F81B
:10466000A2108842DED104F1A8010D4604F5FC70C9
:1046700001F084FF002084F88C03294602A803F08F
:1046800007F8694604F1900002F03EFF694604F520
:104690005C720846FEF75CFB6B4602AA04F5567195
:1046A000204603F09BFB204603F012FB204601F05E
:1046B00088F97FBD2DE9FE43044690F86F000D4652
:1046C000012857D0022855D1D4F82403362806DA19
:1046D00003B02046BDE8F043012102F0E2BF94F8A8
:1046E0006200092846D2DFE800F04545454545050A
:1046F00005450500002A3DD104F18006694628469B
:10470000FFF7C6FD04F1CC006A463146074601F0CA
:1047100060FE04F584602B4636223946804602F05E
:104720005AF948B32868002824D0294604F27C426C
:104730000846FEF70DFB286800281BD094F8870078
:10474000C04340F34000401C14D028466946FFF7A0
:104750009FFD6A46314638463D4601F06AFE3622E4
:104760002946404602F044F9002803D101212046A1
:1047700002F097FFBDE8FE830121204602F091FF81
:10478000D9E72DE9FF41044690F86F000F46012854
:1047900009D0022807D1D4F82403362805DA0121EC
:1047A000204602F07EFFBDE8FF8194F862000928F0
:1047B000F9D2DFE800F00505050505060505060048
:1047C000F1E7002AEFD104F1A801884604F5FC7056
:1047D00001F038FF04F1B40104F1580001F0E2F8EF
:1047E000B4F88013B4F8A220491E9142DBD100280E
:1047F000D9D094F8870004F19006C04340F34000FC
:1048000004F54075401C17D0012084F88D03D7E9CA
:104810000001C4E9D401414602A802F039FFDDE9F4
:104820000201C5E910016946304602F06DFEDDE97E
:104830000001C5E91E01B6E7002084F88D03D7E921
:104840000001C4E9D4016946304602F05DFE002251
:104850006946204603F014FBA5E77FB5044690F8AF
:104860006F00012809D0022807D1D4F82403362884
:1048700004DA0121204602F014FF7FBD94F86200A3
:104880000928FAD2DFE800F005050505050605054B
:104890000600F2E794F88D030028EED0B4F8800308
:1048A000B4F8A210401E8142E7D104F1A8010D46E0
:1048B00004F5FC7001F0DEFE294602A802F0E8FED5
:1048C000DDE90201C4E9D201694604F1900002F079
:1048D0001BFE694604F55E720846FEF739FA0122AE
:1048E0006946204603F0CCFA002084F88D037FBD92
:1048F0007FB50446D0F824030D462C2804DA0121A4
:10490000204602F0CEFE7FBD94F862000928FAD25C
:10491000DFE800F005050505050544060600F2E799
:10492000002AF0D104F1980104F1280001F03AF8CE
:104930000028E8D0D5E90001C4E9D601694604F1B0
:10494000900002F0E1FD94F88700C04340F340007E
:10495000401C0BD0012084F88C03B4F8A200A4F80A
:104960008A03DDE90001C4E9DC017FBD04F1A8018F
:104970000D4604F5FC7001F095FE002084F88C03D0
:10498000294602A802F084FE6B4602AA04F556717D
:10499000204603F023FA204603F09AF9204601F05E
:1049A00010F87FBD00BA704740BA70470A4603212D
:1049B00000F071B82DE9FE43446805468946208819
:1049C00002F014F9C0F303204FEA8008C8F1000197
:1049D0000F46284602F05EFA002857D1288904289D
:1049E00054D369680978082950D108284ED328463D
:1049F00000F0EFFAF0BB2221284602F04BFAD0B1CA
:104A00004146284602F046FAA0BB2989002202202E
:104A100002F0F6F8060039D0294602F09DF948BBAD
:104A200039463046746802F035FA18BB284602F061
:104A30000FFA354605E06FF02101284602F02AFA08
:104A4000C0B96868E1682269E260216100260670E9
:104A50004680208902F0CAF8C0B240F47F40FFF7D8
:104A6000A3FF208166814146284602F013FA08B967
:104A7000012100E00AE0CDE90061FF230022CDF82A
:104A8000089004F10C01284600F0FEFC2846BDE821
:104A9000FE4302F0DDB92DE9FC4791460E46804603
:104AA00000222421012002F0ABF8050024D06C681C
:104AB000D8F804701C22267084F801900026A68085
:104AC000E6806868D8F804100830FBF7D1FB6680F0
:104AD0006989204600F077FA60800120CDE9006006
:104AE000FF2307F10C020021284600F0B3FC284602
:104AF000BDE8FC4702F0ACB9BDE8FC870A460B21D3
:104B0000FFF7C9BF427B022A04D0012A06D1C2891D
:104B10008A4203D24908C1810121417370470000D4
:104B20002DE9F0410546406817460E46008802F020
:104B30005DF8C0F3032080004142284602F0AAF944
:104B400028BB6989082942D36C68204600F03BFAEB
:104B5000E8B93946304600F0FDF8C0B12178112996
:104B600002D0162933D12AE039681B4F3A689142A6
:104B700001D1636863B183684BB1914204D1211DB7
:104B8000304600F0E7F810B16178FFF7BBFF1EE098
:104B9000607808B90A2060700F48001F03680BE0B6
:104BA0005868B04207D198683968884203D0617864
:104BB0001846FFF7A7FF1B68002BF1D107E0417BE8
:104BC000012904D10021C1810222427301732846C8
:104BD000BDE8F04102F03CB9000100202DE9F043AE
:104BE00087B08146DDE90E451E461746884649F2E4
:104BF0000440FFF7D9FEADF814000020ADF8160010
:104C0000042105AACDE903218DE8310033463A4657
:104C10004146484600F048FC07B0BDE8F08300007C
:104C20002DE9F04106460F466FF008044FF0704042
:104C300001F0DAFF396800EA0105600701F0D4FFEE
:104C4000854230D11B493868096888422BD01A4800
:104C5000056826E095F82E00400621D526B130687B
:104C600010B1696881421BD13946284600F084F8AA
:104C700004001BD0607B78B9207C28B96B6B1BB11A
:104C800001223946284698471621204600F0C2F8EE
:104C90000520E08101206073207C401C20740024EA
:104CA0002D68002DD6D12046BDE8F0814FF0FF30B1
:104CB000FAE7000000010020E80000202DE9F041A3
:104CC000064688466FF008074FF0704001F08CFFF1
:104CD000D8F8001000EA0104780701F085FF84424B
:104CE00031D11A49D8F80000096888422BD01848F9
:104CF000046826E094F82E00400621D526B13068DD
:104D000010B1616881421BD14146204600F022F873
:104D1000050015D0287C01280FD8287B18B1172151
:104D2000284600F077F8636B1BB10022414620460D
:104D30009847284600F03EF801E0401E28740027FE
:104D40002468002CD6D13846BDE8F081000100204F
:104D5000E800002010B50246064806E0436893428A
:104D600003D183680C68A34202D000680028F5D103
:104D700010BD0000FC00002070B50C4606460C4D2E
:104D8000FFF7E8FF002810D1042001F0A3F9002864
:104D90000BD0466054B1216881600021C18141730C
:104DA0000173017429680160286070BD0021F3E778
:104DB000FC0000200D4910B50A68002482420AD187
:104DC00002680A600BE01168814203D1016811603A
:104DD0001AB104E00A46002AF5D16FF00904014631
:104DE000042001F03FF9204610BD0000FC00002027
:104DF00010B504460648036807E05868A04203D18E
:104E000005211846FFF77EFE1B68002BF5D110BD6B
:104E1000FC0000202DE9FE434FF000090F46044638
:104E20004A4608214846CDF8089001F0E9FE5FEABD
:104E3000000834D06068D8F80450011D06D04068DE
:104E40000290162F04D0172F0CD025E00020F7E792
:104E500014F1080604D0A06868600120207307E000
:104E60000020F9E70F4E14F1080000D0A068686038
:104E70002F7085F80190A5F802900821284600F0CF
:104E8000A2F8688061680220CDE900010123324662
:104E900002A94046FFF7A2FE404601F0D9FFBDE857
:104EA000FE8300000401002010B504460949FFF705
:104EB00063FF60B102214173017C491C0174636B83
:104EC0001BB10122034920469847002010BD4FF036
:104ED000FF3010BD00010020FFB502786D46A2F141
:104EE00030030A2B5ED200230A24302A06D110F8A0
:104EF000012F782A09D0582A07D00824A2F13006B9
:104F0000092E04D803FB046314E0102412E0102CD3
:104F100013D1A2F16106052E03D9A2F14107052F95
:104F20000BD8192E01D8612600E04126921B0A32C7
:104F300042EA031310F8012FE0E72E2A0DD09AB1B0
:104F4000202A11D00C2A0FD00A2A0DD00D2A0BD0FE
:104F5000092A09D00B2A25D106E003AA954221D2BD
:104F600008C510F8012FBAE76846281A012202EB9B
:104F7000A000052822D2DFE800F01521030A130063
:104F8000B3F1807F0ED2009843EA006316E0B3F5D8
:104F9000803F07D20098019A000640EA02400CE0E8
:104FA000FF2B02D9002004B0F0BD0098019A000642
:104FB00040EA0240029A40EA0220034309B118BACB
:104FC00008600120EFE710B500F0BCFEC04380B2DE
:104FD00010BD70B500240546264613E0698968684F
:104FE00000F0B0FE204481B201EB1044A87AC00763
:104FF00007D0C6F10100C6B2E0B2C4F3072141EA0E
:1050000000242D68002DE9D126B1E0B2C4F30721B8
:1050100041EA0024E04380B270BD10B50446002090
:10502000C4F82C03C4F82803C4F8C403C4F8AC03C0
:10503000B4F88A14A4F8A813C4F89C03B4F88C1428
:10504000A4F8981384F88C0384F88D03C4F83C0307
:10505000C4F83803C4F84403C4F84003C4F84C034C
:10506000C4F84803C4F85403C4F8500384F8320069
:10507000A063A08694F8850410B90020FDF774FEA3
:1050800004F58460BDE8104001F03CBB30B501255B
:10509000D0F8984403460570411C00F26D40FCF7BF
:1050A000CBF95D81E0785873A0781873A088D88117
:1050B000A0791874E0795874207A9874607AD8745A
:1050C000D3F801009865D3F80500D865A3F86050BF
:1050D000032083F86300002098665866217883F8DF
:1050E0006C10062183F86D10617883F86E1094F8C7
:1050F000321083F86F1083F87050022183F871101A
:1051000023F8780F208E5880D4E9081203F56270D6
:10511000E3E9FF12D4E90A12C0E91F12608FD882B6
:10512000A08F1883208F9882E08E588294F83500E3
:10513000587494F834001874A07B83F8200030BDB4
:105140000149002008607047240100200068421CCB
:1051500012D088B191F82E2092070BD54A6882426E
:1051600008D0896800EA01030A40934202D1014352
:10517000491C01D000207047012070472DE9F74FEE
:1051800084B0022205984FF0140B0021868D104642
:1051900001F036FD5FEA000A23D04348AAF80A600E
:1051A000AAF8086020F00305CAF8045004981422F5
:1051B00041682846FBF75CF8E88801F017FDC0F36A
:1051C0000C0700F40050029004980089143884B24F
:1051D000143EF01706EB5070C0F3CF00CDE9000687
:1051E00051E04FF0FF3007B0BDE8F08F01988442E6
:1051F00001DC012000E000205FEA00090298C7F30B
:105200000C0646EA000645D0204680B2804602469B
:105210005B4605F11401049801F0E6FD58441FFABD
:1052200080FB3046FFF7C0FBE88008F1140080B235
:10523000FFF7BAFB68800020688114212846FFF739
:10524000C2FE6881B9F1000F05D004F1140081B2EB
:10525000504601F04FFE00221146022001F0D0FC22
:1052600006001CD0514601F065FD05983146069AAE
:1052700043699847304601F0EBFDA4EB080084B287
:105280000098384487B2002CB0D1504601F0E0FDC0
:105290000020A8E7009846F40056C000B5E7504645
:1052A00001F0D6FD9DE70000C39F00202DE9F84FD7
:1052B000456880460E46288801F098FC0421B1EB31
:1052C000103F14D1288801F091FCC0F303204FF661
:1052D000FF7101EA8004688801F088FC0146B8F893
:1052E0000A00A04203D3B8F80800884203D240461F
:1052F00001F0AEFD6DE0404601F0FCFD4FF0704A5C
:10530000504601F071FC29694FF0604B00EA01043E
:10531000584601F069FC84420DD196F82E004006F3
:1053200007D505F110013046FFF714FD08B13446EA
:1053300023E0002421E005F11000DFF8109101279F
:1053400034460090204601F0B2FB58B1201D09D030
:10535000606838B1296981420FD021460098FFF773
:10536000F5FE50B91FB10027D9F8004000E02468CD
:10537000B44200D12468002CE4D1314605F10C0080
:10538000FFF7E4FE0028B2D1504601F02DFCE96899
:1053900000EA0107584601F027FC8742A7D0002CFD
:1053A000A5D043F6FF70FFF7FFFAE988084207D05F
:1053B000404600F0FFF85FEA00080AD0D8F8045031
:1053C000234C31464046C4E9016501F02BFF18B17A
:1053D00037E00020BDE8F88F288901F007FCC0B253
:1053E00001280ED0022811D01128314605D005F130
:1053F0001000FFF7ABFE80B120E0404602F00EFB4C
:105400001FE031464046FFF7D5FA1AE005F11002D9
:1054100031464046FFF784FB13E0504601F0E4FBC1
:10542000296900EA0106584601F0DEFB864205D0F4
:1054300040460221C8F80450FFF7B8FA404601F090
:1054400007FD00206060A060C3E70000E8000020C6
:10545000080100202DE9FE438146DDE90A541F467C
:1054600016468846104600F079FA50B10095CDE90D
:1054700001403B4632464146484600F005F8BDE84B
:10548000FE836FF00300FAE7F0B585B00AAC94E84C
:10549000E0000024CDE90274CDE90056049400F048
:1054A00003F805B0F0BD00002DE9F05F9B460C9EAF
:1054B0000E9C5FEA02088A46054662D04FF0140946
:1054C000C4B1E71C4FF6FC70074007F114001FFA47
:1054D00080F939B2284601F0DDFC80B922466868BF
:1054E0000D99FAF7C5FEBC4204D26868391B204406
:1054F000FAF7D7FE1421284601F0CCFC18B16FF062
:105500000100BDE8F09F6C685F46208901F06EFBEA
:1055100067F31F20FFF748FA208101F067FB0B9922
:1055200020F0FF000843FFF73FFA2081D8F8000081
:1055300020610A984FEA990140EA012080B240F4C4
:105540008040FFF731FA20802889FFF72DFA184FA5
:1055500060804FF00009A4F806903888FFF724FA1D
:10556000A0803888401C3880BAF1000F02D0DAF8E9
:10557000000010B9301D00D07068E060A4F80A90F7
:1055800002E0686800F11008B08D48B129898142B5
:1055900006D9424631462846BDE8F05FFFF7EEBD2A
:1055A0004246294630467369BDE8F05F184700005F
:1055B000080100202DE9F14F002700984468208859
:1055C00001F014FBC0F3032005287DD1E08801F031
:1055D0000DFBC0044FEA104A608801F007FB054646
:1055E000208801F003FBC0F30320404205EB80005C
:1055F0001FFA80F9009801F0A6FB594D064628884D
:1056000030440A2809D93146204600F06DF90028B7
:105610005AD0288830440A2856D8A8466D684FF0DA
:10562000000B0DE06869E168884207D1A86921692B
:10563000884203D1A889A188884204D02F462D68CA
:10564000002DEFD106E02DB1E08801F0CFFAC004C3
:1056500024D02EE0022000F03DFD05000AD13146A5
:10566000204600F041F9B04216DB022000F032FD86
:10567000050011D02021FAF714FE0320E877D8F8AE
:10568000041029601422214605F10800C8F80450CE
:10569000FAF7EEFDC5B10CE05D46FBE7E88901F0E5
:1056A000A5FAC00405D01422214605F10800FAF736
:1056B000DFFDB8F800103144A8F80010E08801F0D0
:1056C00095FA800408D400E045E0A87F40F001008E
:1056D000A8770AEB0900A8832846009900F042F851
:1056E000002836D0A88B14221430A883686805F1EE
:1056F0000801466830463468FAF7BAFDA88BFFF710
:1057000053F97080A6F806B0A6F80AB01421304606
:10571000FFF759FC70816FF0130AD5F8049009E087
:1057200051462046666801F0B5FB2146484601F027
:10573000EDFA3468002CF3D13946284600F08AF897
:10574000484601F000FBB8F80020101AA8F8000045
:105750004846BDE8F88F009801F07AFB0020F8E792
:10576000140100202DE9F047D1F8049080460E4640
:1057700000240125B9F8020001F038FA0746B9F80B
:10578000000001F033FAC0F30320404207EB80072A
:10579000B9F8060001F02AFAC0047268030C002070
:1057A0001060D81993801FFA80FCA2F806C0D8F8C0
:1057B00004101CE048688788BB420DD211603CB1E0
:1057C000E788BB4236D38088844533D8266001E021
:1057D000C8F8046069B116E02CD0C1888B4229D387
:1057E0001CB1E188B94200D00025016804460029B7
:1057F000E0D134B12660E0889188884203D000254A
:1058000001E0C8F8046098F81E00C0070ED065B12A
:10581000D8F804004068808830B9116829B1486818
:10582000D1888288914203D000252846BDE8F087C0
:105830000246F2E7304601F086FA01460448028843
:10584000511A0180304601F003FB0020EEE7000012
:1058500014010020074A30B40B46546801688442A2
:1058600001D1516000E01960014630BC022000F017
:10587000F9BB0000140100202DE9F0414468064600
:10588000884660680025818891B90068706014229C
:1058900006F108016068FAF7EBFC01212046FFF7EA
:1058A0002DF9204601F04FFA0546204601F0D0FAC6
:1058B000746809E0606827460468384601F043FAD6
:1058C0000544384601F0C4FA002CF3D14146304675
:1058D000FFF7C0FF03490888401B08802846BDE841
:1058E000F0810000140100202DE9F041DFF868800C
:1058F0000F4605460026002213461446D8F8040039
:105900001AE04169D5F80CC0614509D18169D5F823
:1059100010C0614504D18189B5F804C0614507D044
:10592000641C22B1C17F92F81FC0614500D80246B5
:10593000016801B1034608460028E2D122B11946A8
:105940001046FFF799FF0644BE4201DA012CD2DC73
:105950003046BDE8F08100001401002070B5054616
:105960000E4804680DE0204601F0A1F840B1A0689F
:105970002968626801400240914201D1204670BD11
:105980002468002CEFD1064C206820B101F08FF87C
:1059900008B1206870BD002070BD0000E800002044
:1059A000EC00002070B50D4604460822FAF79DFC75
:1059B00028B920892989884201D1012070BD0020A1
:1059C00070BD2DE9F043044690F86F0085B04FF4A8
:1059D0007A7704F1CC0804F5846504F27C4904F577
:1059E000737601280FD002284ED13146002001F0F5
:1059F00007FE002848D094F97000411C00294BDDB7
:105A000007FA01F04BE094F8620008283CD13146D7
:105A1000012001F0F5FD002836D094F96300411C07
:105A2000002902DD07FA01F002E0C04327FA00F086
:105A3000FEF73AFC01463246012001F0F5FD6846CA
:105A4000FEF73BFC02A96846FEF722FC02AA41468B
:105A50004646204600F0C1FB6B462C2231462846C4
:105A600000F0A0FF98B1B4F88203401CA4F88203B0
:105A70000098002808D069464A460846FDF768F9AC
:105A8000DDE90001C4E9D80105B0BDE8F0830121DA
:105A9000204601F006FEF7E7C04327FA00F0FEF7C4
:105AA00003FC01463246002001F0BEFD6846FEF7C9
:105AB00004FC02A96846FEF7EBFB02AA41464646F3
:105AC000204600F05AFC6B4636223146284600F04C
:105AD00082FF0028DBD0B4F88003401CA4F88003C8
